:0E0B310054544C3A2000430054424C3A2000E9
:10090100014800024F001E024B0014102820202035
:1009110020202020202020202020202020103820CE
:1009210020202020202020202020202020202010D6
:1009310008202020202020202020202020202020CE
:1009410020101820202020202020202020202020BE
:0309510020202043
:030B5500A2A02239
:100626000548E54875F03284E5F07014120886E452
:10063600FBFA792078411200031201478E498F4A4E
:10064600C3E549648094805010C3E4954AF54AE4B2
:100656009549F5497551408003E4F551AE49AF4AD5
:100666007C037DE812027574562FF8E6F552AE4902
:10067600AF4A7C037DE8120275AA04AB057D647C53
:1006860000AF03AE0212027574562FF8E6F5537DDD
:10069600647C00AF03AE02120275AA04AB057D0AA4
:1006A6007C00AF03AE0212027574562FF8E6448042
:1006B600F5547D0A7C00AF03AE0212027574562D06
:0F06C600F8E6F5557B007A0079517D040207684C
:0603F7007B007A0079088A
:0A03FD008E678F688B698A6A896B2E
:10040700E4F56CF56DC3E56764809480501FC3E421
:100417009568F568E49567F567056DE56DAE6C70F1
:1004270002056C14F5828E83742D120253AE67AFEA
:10043700687C007D0A120275ED2430FFAB69AA6A59
:10044700A96B056DE56DAC6C7002056C14F5828CBB
:1004570083EF120253AE67AF687C007D0A12027504
:100467008E678F68E568456770C3AB69AA6AA96B31
:10047700856D82856C83120253E4F54DF54E1201AA
:10048700C8B42D0E754D00754E01056DE56D7002F2
:10049700056CAE6CAF6D7C007D02120275C3E54E34
:1004A7009FEE6480F8E54D6480984003020556E5A9
:1004B7006D24FFFFE56C34FFFEC3EF954EFFEE950D
:1004C7004DAB69AA6AA96B8F82F5831201E1854E4C
:1004D70082854D8312020EE56D24FFFFE56C34FF24
:1004E700FEC3EF954EFFEE954D8F82F5831201E126
:1004F700FF854E82854D831201E1C39FFFE56D2481
:10050700FFFDE56C34FFFCC3ED954EFDEC954DFC0E
:100517008D82F583EF120253E9254EF9EA354DFA3C
:10052700C003C002C0011201C8FFAB69AA6AA96B68
:100537008D828C831201E1FEC3EF9ED001D002D0E1
:1005470003120241054EE54E7002054D020499ABB8
:0505570069AA6AA96B0E
:01055C00227C
:10055D0078187C007D007B007A007908120385787D
:10056D00187C007D007B007A00793812038578387D
:10057D007C007D007B007A007928120385756AFF67
:10058D00756B0B756C317B007A007928120968AF99
:10059D0050AE4F1203F78B6A8A6B896C7B007A0021
:1005AD007928120968756AFF756B0B756C377B00BE
:1005BD007A0079281209687B007A007928E4FDFF1A
:1005CD001206D578187C007D007B007A0079081220
:1005DD000385756AFF756B0B756C397B007A007935
:1005ED0038120968AF4CAE4B1203F78B6A8A6B89D0
:1005FD006C7B007A007938120968756AFF756B0B90
:10060D00756C377B007A0079381209687B007A00A7
:09061D0079387D01E4FF0206D5E5
:100B1000120B4A120AEA120626120B5012055D80C9
:010B2000F5DF
:100ACF00C2A6C2A5C2A78F807F017E00120AB1D233
:0B0ADF00A77F017E00120AB1C2A7220F
:0A0A6C00AB68AA69A96A1201C8FF6D
:100A7600D2A6C2A5C2A78F807F017E00120AB1D27C
:0B0A8600A77F017E00120AB1C2A72268
:100AEA007F38120ACF7F0C120ACF7F06120ACF7FF5
:040AFA0001020ACF1C
:050B50007F01020ACF45
:0806D5008F678B688A69896A4E
:1006DD00E4F56BEDD394014003020767E567940FD2
:1006ED005078EDC394015039AB68AA69A96A12011B
:1006FD00C86067C374109567FFE56BC39FE56B50CA
:10070D0006248025678004256724B0FF120ACF12C6
:10071D000A6C7401256AF56AE43569F569056B8023
:10072D00C7AB68AA69A96A1201C8602EC374109577
:10073D0067FFE56BC39FE56B500624C025678004FA
:10074D0025672470FF120ACF120A6C7401256AF511
:0A075D006AE43569F569056B80C791
:01076700226F
:100AFE00C2B77F4B7E00120B3FD2B77F027E000241
:020B0E000B3F9B
:1009C000E4F56E30B712E56EC39414500B056E7FDC
:1009D000017E00120B3F80EBE56EC3941440037F51
:1009E0000122E4F56E20B712E56EC39414500B0596
:1009F0006E7F017E00120B3F80EBE56EC3941440C6
:060A0000037F01227F00CC
:010A060022CD
:100A9100E4F570C2B70000D2B7000030B705757039
:0F0AA100018003E4F5707F057E00120B3FAF70FC
:010AB0002223
:100A4600E4F56EF56FFFF56E120A91EFC43333339A
:100A56005480FEE56FC3134EF56F056EE56EC394C5
:050A66000840E5AF6F40
:010A6B002268
:020A07008F6EF0
:100A0900E4F56FF570F56FE56E5401F570E56EC3A9
:100A190013F56EE570600FC2B70000D2B77F067E8E
:100A290000120B3F800DC2B77F067E00120B3FD22A
:0C0A3900B70000056FE56FC3940840CBC8
:010A4500228E
:100B2100120AFE1209C07FCC120A077F44020A078B
:060B4A00120AFE0209C0C0
:10088600E4FFF56BF56CF56D120B21120AFE1209E9
:10089600C07FCC120A077FBE120A07120A468F6B68
:1008A600120A46EFFE7C00E4256BF56DEC3EF56C16
:1008B60054F8FEEEB4F821E56DF4FFE56CF4FEEFB6
:1008C6002401F56DE43EF56CFCAD6DE412010EE419
:1008D600FBFA798078BD800FAC6CAD6DE412010E29
:1008E600E4FBFA7980783D1200038F6A8E698D6881
:0A08F6008C67AF6AAE69AD68AC67AD
:0109000022D4
:1009540011563F065B4F666D7D077F6F777C395E6E
:03096400797100A6
:060768008B678A688969B5
:10076E00E4F56AED14F56BF56AE56AC39408507BFF
:10077E00E56AB40800504D90078CF82828730207DC
:10078E00A40207A80207AC0207B00207B40207BC16
:10079E000207C40207CCD2A4800ED2A48012D2A427
:1007AE008016D2A4801AC2A4D2A3D2A28016C2A44A
:1007BE00D2A3C2A2800EC2A4C2A3D2A28006C2A499
:1007CE00C2A3C2A2C3E56A956BFFE49400AB67AA0D
:1007DE0068A9698F82F5831201E1F5807F647E003E
:0B07EE00120B3FE4F580056A0207775C
:0107F90022DD
:0B0B3F00EF1FAC0670011E4C70F62288
:100AB100D3EF9400EE940040147D6E7C00ED1D7028
:0D0AC100011CED4C70F7EF1F70E61E80E386
:010ACE002205
:10000300EC4D6011E8497017ED33EC3304600DE4F7
:10001300FCFFFEFD22E933E8330470F80201B3125A
:10002300017E58046009E4CC24815006285009025B
:1000330001BD2840030201BAC0E0EB4A7044B98015
:1000430006D0E0FB0201A9EF4E701CBD8008EBFF58
:10005300EAFEE9FD80EBE98DF0A4FEE5F00200EC99
:10006300E9CDF9EAFEEBFFEF89F0A4FCE5F0CE89D8
:10007300F0A42EFFE435F0CD89F0A42DFEE435F095
:100083008067EF4E7005BD80D780C3EF8BF0A4ACC3
:10009300F0EE8BF0A42CFCE435F0F8EF8AF0A42CFE
:1000A300E5F038FCE433CB8DF0A42CFCE5F03BF811
:1000B300EE8AF0A42CFCE5F038F8E433CF89F0A401
:1000C3002CFCE5F038CF3400CE89F0A42FFFE5F007
:1000D3003EFEE433C98DF0A42EFEE5F039CD8AF05F
:1000E300A42FFFE5F03EFEE43DFD33D0E0FB5007D7
:1000F3000BBB000F0201BDEC2CFCEF33FFEE33FE14
:06010300ED33FD02019541
:1001090075F020800E75F010800575F0087D007E71
:10011900007F003392D530D5031202ABEC33401087
:10012900EF33FFEE33FEED33FDEC33FCD5F0ED227A
:0E013900E5F0247EA2D513CC92E7CDCEFF22B6
:10014700EDD2E7CD33EC3392D524814006E4FFFEB0
:10015700FDFC22FCE4CFCECDCC24E0501174FF800F
:10016700EDC3CC13CCCD13CDCE13CECF13CF0470AC
:07017700F030D5DE0202ABFF
:10017E00E9D2E7C933E833F892D5EDD2E7CD33ECC7
:07018E0033FC5002B2D52240
:10019500EC30E7100FBF000C0EBE00080DBD0004CB
:1001A5000BEB6014A2D5EB13FCED92E7FD2274FF77
:1001B500FCFDFEFF22E480F8A2D574FF13FC7D80D0
:0301C500E480EFE4
:030000000207FAFA
:0C07FA00787FE4F6D8FD7581700208419C
:1001C800BB010689828A83E0225002E722BBFE0235
:0901D800E32289828A83E4932268
:1001E100BB010CE58229F582E5833AF583E02250D3
:1001F10006E92582F8E622BBFE06E92582F8E2221D
:0D020100E58229F582E5833AF583E4932236
:10020E00BB010FF8E58229F582E5833AF583E028F4
:10021E00F0225009C58229F8E58226F622BBFE0996
:10022E00C58229F8E22582F222F8EA2583F583E9D0
:03023E00932822E0
:10024100BB010689828A83F0225002F722BBFE019C
:02025100F32296
:10025300F8BB010DE58229F582E5833AF583E8F0E1
:10026300225006E92582C8F622BBFE05E92582C88D
:02027300F22275
:10027500C2D5EC30E709B2D5E4C39DFDE49CFCEEA4
:1002850030E715B2D5E4C39FFFE49EFE1203A2C377
:10029500E49DFDE49CFC80031203A230D507C3E472
:0602A5009FFFE49EFE2213
:0E02AB00C3E49FFFE49EFEE49DFDE49CFC2264
:100968008B678A6889698B6D8A6E896FAB67056941
:10097800E569AA687002056814F91201C870ED7477
:10098800FF2569F56974FF3568F568AB6A056CE59C
:100998006CAA6B7002056B14F91201C8FFAB6705EE
:1009A80069E569AA687002056814F9EF12024170D6
:0809B800DAAB6DAA6EA96F22F3
:1002B900E709F60870FA8046E709F20870FA803E05
:1002C90088828C83E709F0A370FA807EE309F60837
:1002D90070FA8076E309F20870FA806E88828C835E
:1002E900E309F0A370FA806289828A83E0A3F608A1
:1002F90070FA805689828A83E0A3F20870FA804AEC
:1003090080D280FA80C680D4806580F280318010E6
:1003190080A680EA809A80A880DA80E280CA80314B
:1003290089828A83ECFAE493A3C8C582C8CCC583C1
:10033900CCF0A3C8C582C8CCC583CC70E9800D892F
:10034900828A83E493A3F60870F9ECFAA9F0EDFB2D
:100359002289828A83ECFAE0A3C8C582C8CCC58306
:10036900CCF0A3C8C582C8CCC583CC70EA80DD892E
:10037900828A83E493A3F20870F980CE88F0ED2491
:1003890002B4040050C4F582EB2402B4040050BA4C
:090399002323458223900309731C
:10080600020B10E493A3F8E493A34003F68001F2ED
:1008160008DFF48029E493A3F85407240CC8C333F3
:10082600C4540F4420C8834004F456800146F6DFC2
:10083600E4800B0102040810204080900901E47E48
:10084600019360BCA3FF543F30E509541FFEE493B7
:10085600A360010ECF54C025E060A840B8E493A37E
:10086600FAE493A3F8E493A3C8C582C8CAC583CAA9
:10087600F0A3C8C582C8CAC583CADFE9DEE780BE61
:01096700008F
:1003A200BC000BBE0029EF8DF084FFADF022E4CC3F
:1003B200F875F008EF2FFFEE33FEEC33FCEE9DEC08
:1003C200984005FCEE9DFE0FD5F0E9E4CEFD22ED4E
:1003D200F8F5F0EE8420D21CFEADF075F008EF2F98
:1003E200FFED33FD4007985006D5F0F222C398FD89
:0503F2000FD5F0EA2226
:00000001FF
